{
    "contractName": "ZombieFactory",
    "abi": [
        {
            "anonymous": false,
            "inputs": [
                {
                    "indexed": false,
                    "internalType": "uint256",
                    "name": "zombieId",
                    "type": "uint256"
                },
                {
                    "indexed": false,
                    "internalType": "string",
                    "name": "name",
                    "type": "string"
                },
                {
                    "indexed": false,
                    "internalType": "uint256",
                    "name": "dna",
                    "type": "uint256"
                }
            ],
            "name": "NewZombie",
            "type": "event"
        },
        {
            "inputs": [
                {
                    "internalType": "string",
                    "name": "_name",
                    "type": "string"
                }
            ],
            "name": "createRandomZombie",
            "outputs": [],
            "stateMutability": "nonpayable",
            "type": "function"
        },
        {
            "inputs": [
                {
                    "internalType": "uint256",
                    "name": "",
                    "type": "uint256"
                }
            ],
            "name": "zombieToOwner",
            "outputs": [
                {
                    "internalType": "address",
                    "name": "",
                    "type": "address"
                }
            ],
            "stateMutability": "view",
            "type": "function"
        },
        {
            "inputs": [
                {
                    "internalType": "uint256",
                    "name": "",
                    "type": "uint256"
                }
            ],
            "name": "zombies",
            "outputs": [
                {
                    "internalType": "string",
                    "name": "name",
                    "type": "string"
                },
                {
                    "internalType": "uint256",
                    "name": "dna",
                    "type": "uint256"
                }
            ],
            "stateMutability": "view",
            "type": "function"
        }
    ],
    "bytecode": "60806040526010600081905561001690600a610127565b60015534801561002557600080fd5b5061013a565b634e487b7160e01b600052601160045260246000fd5b600181815b8085111561007c5781600019048211156100625761006261002b565b8085161561006f57918102915b93841c9390800290610046565b509250929050565b60008261009357506001610121565b816100a057506000610121565b81600181146100b657600281146100c0576100dc565b6001915050610121565b60ff8411156100d1576100d161002b565b50506001821b610121565b5060208310610133831016604e8410600b84101617156100ff575081810a610121565b6101098383610041565b806000190482111561011d5761011d61002b565b0290505b92915050565b60006101338383610084565b9392505050565b610621806101496000396000f3fe608060405234801561001057600080fd5b50600436106100415760003560e01c80632052465e14610046578063528b7b8f146100705780637bff0a01146100b1575b600080fd5b6100596100543660046103a6565b6100c6565b60405161006792919061041b565b60405180910390f35b61009961007e3660046103a6565b6003602052600090815260409020546001600160a01b031681565b6040516001600160a01b039091168152602001610067565b6100c46100bf366004610453565b610182565b005b600281815481106100d657600080fd5b90600052602060002090600202016000915090508060000180546100f990610504565b80601f016020809104026020016040519081016040528092919081815260200182805461012590610504565b80156101725780601f1061014757610100808354040283529160200191610172565b820191906000526020600020905b81548152906001019060200180831161015557829003601f168201915b5050505050908060010154905082565b336000908152600460205260409020541561019c57600080fd5b60006101a7826101ce565b90506101b460648261053e565b6101be9082610576565b90506101ca8282610212565b5050565b600080826040516020016101e2919061058d565b6040516020818303038152906040528051906020012060001c90506001548161020b919061053e565b9392505050565b60408051808201909152828152602080820183905260028054600181018255600082905283518051919092027f405787fa12a823e0f2b7631cc41b3ba8828b3321ca811111fa75cd3aa3bb5ace019261026f92849291019061030d565b506020919091015160019182015560025460009161028c91610576565b600081815260036020908152604080832080546001600160a01b031916339081179091558352600490915281208054929350906102c8836105a9565b91905055507f88f026aacbbecc90c18411df4b1185fd8d9be2470f1962f192bf84a27d0704b7818484604051610300939291906105c2565b60405180910390a1505050565b82805461031990610504565b90600052602060002090601f01602090048101928261033b5760008555610381565b82601f1061035457805160ff1916838001178555610381565b82800160010185558215610381579182015b82811115610381578251825591602001919060010190610366565b5061038d929150610391565b5090565b5b8082111561038d5760008155600101610392565b6000602082840312156103b857600080fd5b5035919050565b60005b838110156103da5781810151838201526020016103c2565b838111156103e9576000848401525b50505050565b600081518084526104078160208601602086016103bf565b601f01601f19169290920160200192915050565b60408152600061042e60408301856103ef565b90508260208301529392505050565b634e487b7160e01b600052604160045260246000fd5b60006020828403121561046557600080fd5b813567ffffffffffffffff8082111561047d57600080fd5b818401915084601f83011261049157600080fd5b8135818111156104a3576104a361043d565b604051601f8201601f19908116603f011681019083821181831017156104cb576104cb61043d565b816040528281528760208487010111156104e457600080fd5b826020860160208301376000928101602001929092525095945050505050565b600181811c9082168061051857607f821691505b60208210810361053857634e487b7160e01b600052602260045260246000fd5b50919050565b60008261055b57634e487b7160e01b600052601260045260246000fd5b500690565b634e487b7160e01b600052601160045260246000fd5b60008282101561058857610588610560565b500390565b6000825161059f8184602087016103bf565b9190910192915050565b6000600182016105bb576105bb610560565b5060010190565b8381526060602082015260006105db60608301856103ef565b905082604083015294935050505056fea264697066735822122003c02ac2bd2355cd6770356d6d0f294137c45551229143e446963504255adce364736f6c634300080e0033",
    "sourcePath": "c:/Users/User/Documents/GitHub/blockchain/220527/cryptoZombieSend.sol",
    "compiler": {
        "name": "solc",
        "version": "0.8.14+commit.80d49f37"
    },
    "functionHashes": {
        "createRandomZombie(string)": "7bff0a01",
        "zombieToOwner(uint256)": "528b7b8f",
        "zombies(uint256)": "2052465e"
    },
    "gasEstimates": {
        "creation": {
            "codeDepositCost": "313800",
            "executionCost": "44906",
            "totalCost": "358706"
        },
        "external": {
            "createRandomZombie(string)": "infinite",
            "zombieToOwner(uint256)": "2477",
            "zombies(uint256)": "infinite"
        },
        "internal": {
            "_createZombie(string memory,uint256)": "infinite",
            "_generateRandomDna(string memory)": "infinite"
        }
    }
}