{
    "contractName": "MyTestContract",
    "abi": [
        {
            "anonymous": false,
            "inputs": [
                {
                    "indexed": true,
                    "internalType": "address",
                    "name": "_from",
                    "type": "address"
                },
                {
                    "indexed": true,
                    "internalType": "address",
                    "name": "_to",
                    "type": "address"
                },
                {
                    "indexed": false,
                    "internalType": "uint256",
                    "name": "_amout",
                    "type": "uint256"
                }
            ],
            "name": "Transfer",
            "type": "event"
        },
        {
            "inputs": [
                {
                    "internalType": "address",
                    "name": "_owner",
                    "type": "address"
                }
            ],
            "name": "balanceOf",
            "outputs": [
                {
                    "internalType": "uint256",
                    "name": "",
                    "type": "uint256"
                }
            ],
            "stateMutability": "view",
            "type": "function"
        },
        {
            "inputs": [],
            "name": "myBalanceOf",
            "outputs": [
                {
                    "internalType": "uint256",
                    "name": "",
                    "type": "uint256"
                }
            ],
            "stateMutability": "view",
            "type": "function"
        },
        {
            "inputs": [
                {
                    "internalType": "address",
                    "name": "_to",
                    "type": "address"
                },
                {
                    "internalType": "uint256",
                    "name": "_amount",
                    "type": "uint256"
                }
            ],
            "name": "transferBalance",
            "outputs": [],
            "stateMutability": "nonpayable",
            "type": "function"
        }
    ],
    "bytecode": "608060405234801561001057600080fd5b506101ec806100206000396000f3fe608060405234801561001057600080fd5b50600436106100415760003560e01c806356a6d9ef1461004657806370a082311461005b578063a8eb44b614610088575b600080fd5b61005961005436600461016a565b61008f565b005b610076610069366004610194565b6001600160a01b03163190565b60405190815260200160405180910390f35b3331610076565b333181111561009d57600080fd5b6040516000906001600160a01b0384169083156108fc0290849084818181858888f193505050509050806101095760405162461bcd60e51b815260206004820152600f60248201526e1d1c985b9cd9995c8819985a5b1959608a1b604482015260640160405180910390fd5b6040518281526001600160a01b0384169033907fddf252ad1be2c89b69c2b068fc378daa952ba7f163c4a11628f55a4df523b3ef9060200160405180910390a3505050565b80356001600160a01b038116811461016557600080fd5b919050565b6000806040838503121561017d57600080fd5b6101868361014e565b946020939093013593505050565b6000602082840312156101a657600080fd5b6101af8261014e565b939250505056fea26469706673582212205f00ff485a4f70b6f74cb2c0d3401ba473703ebe741a76465de6e46d17c93dda64736f6c634300080e0033",
    "sourcePath": "c:/Users/User/Documents/GitHub/blockchain/220527/myTest.sol",
    "compiler": {
        "name": "solc",
        "version": "0.8.14+commit.80d49f37"
    },
    "functionHashes": {
        "balanceOf(address)": "70a08231",
        "myBalanceOf()": "a8eb44b6",
        "transferBalance(address,uint256)": "56a6d9ef"
    },
    "gasEstimates": {
        "creation": {
            "codeDepositCost": "98400",
            "executionCost": "147",
            "totalCost": "98547"
        },
        "external": {
            "balanceOf(address)": "2956",
            "myBalanceOf()": "2801",
            "transferBalance(address,uint256)": "infinite"
        }
    }
}